{
  "_format": "hh-sol-artifact-1",
  "contractName": "YomiGardens",
  "sourceName": "contracts/YomiGardens.sol",
  "abi": [
    {
      "inputs": [],
      "stateMutability": "nonpayable",
      "type": "constructor"
    },
    {
      "anonymous": false,
      "inputs": [
        {
          "indexed": false,
          "internalType": "address",
          "name": "previousAdmin",
          "type": "address"
        },
        {
          "indexed": false,
          "internalType": "address",
          "name": "newAdmin",
          "type": "address"
        }
      ],
      "name": "AdminChanged",
      "type": "event"
    },
    {
      "anonymous": false,
      "inputs": [
        {
          "indexed": true,
          "internalType": "address",
          "name": "owner",
          "type": "address"
        },
        {
          "indexed": true,
          "internalType": "address",
          "name": "approved",
          "type": "address"
        },
        {
          "indexed": true,
          "internalType": "uint256",
          "name": "tokenId",
          "type": "uint256"
        }
      ],
      "name": "Approval",
      "type": "event"
    },
    {
      "anonymous": false,
      "inputs": [
        {
          "indexed": true,
          "internalType": "address",
          "name": "owner",
          "type": "address"
        },
        {
          "indexed": true,
          "internalType": "address",
          "name": "operator",
          "type": "address"
        },
        {
          "indexed": false,
          "internalType": "bool",
          "name": "approved",
          "type": "bool"
        }
      ],
      "name": "ApprovalForAll",
      "type": "event"
    },
    {
      "anonymous": false,
      "inputs": [
        {
          "indexed": true,
          "internalType": "address",
          "name": "beacon",
          "type": "address"
        }
      ],
      "name": "BeaconUpgraded",
      "type": "event"
    },
    {
      "anonymous": false,
      "inputs": [
        {
          "indexed": false,
          "internalType": "uint8",
          "name": "version",
          "type": "uint8"
        }
      ],
      "name": "Initialized",
      "type": "event"
    },
    {
      "anonymous": false,
      "inputs": [
        {
          "indexed": true,
          "internalType": "address",
          "name": "previousOwner",
          "type": "address"
        },
        {
          "indexed": true,
          "internalType": "address",
          "name": "newOwner",
          "type": "address"
        }
      ],
      "name": "OwnershipTransferred",
      "type": "event"
    },
    {
      "anonymous": false,
      "inputs": [
        {
          "indexed": false,
          "internalType": "address",
          "name": "account",
          "type": "address"
        }
      ],
      "name": "Paused",
      "type": "event"
    },
    {
      "anonymous": false,
      "inputs": [
        {
          "indexed": true,
          "internalType": "address",
          "name": "from",
          "type": "address"
        },
        {
          "indexed": true,
          "internalType": "address",
          "name": "to",
          "type": "address"
        },
        {
          "indexed": true,
          "internalType": "uint256",
          "name": "tokenId",
          "type": "uint256"
        }
      ],
      "name": "Transfer",
      "type": "event"
    },
    {
      "anonymous": false,
      "inputs": [
        {
          "indexed": false,
          "internalType": "address",
          "name": "account",
          "type": "address"
        }
      ],
      "name": "Unpaused",
      "type": "event"
    },
    {
      "anonymous": false,
      "inputs": [
        {
          "indexed": true,
          "internalType": "address",
          "name": "implementation",
          "type": "address"
        }
      ],
      "name": "Upgraded",
      "type": "event"
    },
    {
      "inputs": [
        {
          "internalType": "address",
          "name": "_newAddress",
          "type": "address"
        }
      ],
      "name": "addApprovedProxy",
      "outputs": [],
      "stateMutability": "nonpayable",
      "type": "function"
    },
    {
      "inputs": [
        {
          "internalType": "address",
          "name": "",
          "type": "address"
        }
      ],
      "name": "allowedMarketplaces",
      "outputs": [
        {
          "internalType": "bool",
          "name": "",
          "type": "bool"
        }
      ],
      "stateMutability": "view",
      "type": "function"
    },
    {
      "inputs": [
        {
          "internalType": "address",
          "name": "to",
          "type": "address"
        },
        {
          "internalType": "uint256",
          "name": "id",
          "type": "uint256"
        }
      ],
      "name": "approve",
      "outputs": [],
      "stateMutability": "nonpayable",
      "type": "function"
    },
    {
      "inputs": [
        {
          "internalType": "address",
          "name": "owner",
          "type": "address"
        }
      ],
      "name": "balanceOf",
      "outputs": [
        {
          "internalType": "uint256",
          "name": "",
          "type": "uint256"
        }
      ],
      "stateMutability": "view",
      "type": "function"
    },
    {
      "inputs": [],
      "name": "baseTokenURI",
      "outputs": [
        {
          "internalType": "string",
          "name": "",
          "type": "string"
        }
      ],
      "stateMutability": "view",
      "type": "function"
    },
    {
      "inputs": [
        {
          "internalType": "uint256",
          "name": "tokenId",
          "type": "uint256"
        }
      ],
      "name": "burn",
      "outputs": [],
      "stateMutability": "nonpayable",
      "type": "function"
    },
    {
      "inputs": [
        {
          "internalType": "address",
          "name": "proxyAddress",
          "type": "address"
        }
      ],
      "name": "flipProxyState",
      "outputs": [],
      "stateMutability": "nonpayable",
      "type": "function"
    },
    {
      "inputs": [
        {
          "internalType": "uint256",
          "name": "tokenId",
          "type": "uint256"
        }
      ],
      "name": "getApproved",
      "outputs": [
        {
          "internalType": "address",
          "name": "",
          "type": "address"
        }
      ],
      "stateMutability": "view",
      "type": "function"
    },
    {
      "inputs": [
        {
          "internalType": "uint256",
          "name": "",
          "type": "uint256"
        }
      ],
      "name": "includedProxies",
      "outputs": [
        {
          "internalType": "address",
          "name": "",
          "type": "address"
        }
      ],
      "stateMutability": "view",
      "type": "function"
    },
    {
      "inputs": [
        {
          "internalType": "string",
          "name": "_name",
          "type": "string"
        },
        {
          "internalType": "string",
          "name": "_symbol",
          "type": "string"
        },
        {
          "internalType": "string",
          "name": "_baseUri",
          "type": "string"
        },
        {
          "internalType": "address",
          "name": "_recAdd",
          "type": "address"
        },
        {
          "internalType": "uint96",
          "name": "_royalty",
          "type": "uint96"
        },
        {
          "internalType": "address",
          "name": "_firstManager",
          "type": "address"
        }
      ],
      "name": "initialize",
      "outputs": [],
      "stateMutability": "nonpayable",
      "type": "function"
    },
    {
      "inputs": [
        {
          "internalType": "address",
          "name": "owner",
          "type": "address"
        },
        {
          "internalType": "address",
          "name": "operator",
          "type": "address"
        }
      ],
      "name": "isApprovedForAll",
      "outputs": [
        {
          "internalType": "bool",
          "name": "",
          "type": "bool"
        }
      ],
      "stateMutability": "view",
      "type": "function"
    },
    {
      "inputs": [
        {
          "internalType": "address",
          "name": "",
          "type": "address"
        }
      ],
      "name": "managers",
      "outputs": [
        {
          "internalType": "bool",
          "name": "",
          "type": "bool"
        }
      ],
      "stateMutability": "view",
      "type": "function"
    },
    {
      "inputs": [],
      "name": "name",
      "outputs": [
        {
          "internalType": "string",
          "name": "",
          "type": "string"
        }
      ],
      "stateMutability": "view",
      "type": "function"
    },
    {
      "inputs": [
        {
          "internalType": "address",
          "name": "owner",
          "type": "address"
        }
      ],
      "name": "ownedTokensByAddress",
      "outputs": [
        {
          "internalType": "uint256[]",
          "name": "",
          "type": "uint256[]"
        }
      ],
      "stateMutability": "view",
      "type": "function"
    },
    {
      "inputs": [],
      "name": "owner",
      "outputs": [
        {
          "internalType": "address",
          "name": "",
          "type": "address"
        }
      ],
      "stateMutability": "view",
      "type": "function"
    },
    {
      "inputs": [
        {
          "internalType": "uint256",
          "name": "tokenId",
          "type": "uint256"
        }
      ],
      "name": "ownerOf",
      "outputs": [
        {
          "internalType": "address",
          "name": "",
          "type": "address"
        }
      ],
      "stateMutability": "view",
      "type": "function"
    },
    {
      "inputs": [],
      "name": "pause",
      "outputs": [],
      "stateMutability": "nonpayable",
      "type": "function"
    },
    {
      "inputs": [],
      "name": "paused",
      "outputs": [
        {
          "internalType": "bool",
          "name": "",
          "type": "bool"
        }
      ],
      "stateMutability": "view",
      "type": "function"
    },
    {
      "inputs": [],
      "name": "proxiableUUID",
      "outputs": [
        {
          "internalType": "bytes32",
          "name": "",
          "type": "bytes32"
        }
      ],
      "stateMutability": "view",
      "type": "function"
    },
    {
      "inputs": [
        {
          "internalType": "address",
          "name": "",
          "type": "address"
        }
      ],
      "name": "proxyToApprove",
      "outputs": [
        {
          "internalType": "bool",
          "name": "",
          "type": "bool"
        }
      ],
      "stateMutability": "view",
      "type": "function"
    },
    {
      "inputs": [],
      "name": "receiverAddress",
      "outputs": [
        {
          "internalType": "address",
          "name": "",
          "type": "address"
        }
      ],
      "stateMutability": "view",
      "type": "function"
    },
    {
      "inputs": [
        {
          "internalType": "uint256",
          "name": "index",
          "type": "uint256"
        }
      ],
      "name": "removeApprovedProxyIndex",
      "outputs": [],
      "stateMutability": "nonpayable",
      "type": "function"
    },
    {
      "inputs": [],
      "name": "renounceOwnership",
      "outputs": [],
      "stateMutability": "nonpayable",
      "type": "function"
    },
    {
      "inputs": [],
      "name": "royalty",
      "outputs": [
        {
          "internalType": "uint96",
          "name": "",
          "type": "uint96"
        }
      ],
      "stateMutability": "view",
      "type": "function"
    },
    {
      "inputs": [
        {
          "internalType": "uint256",
          "name": "_tokenId",
          "type": "uint256"
        },
        {
          "internalType": "uint256",
          "name": "_salePrice",
          "type": "uint256"
        }
      ],
      "name": "royaltyInfo",
      "outputs": [
        {
          "internalType": "address",
          "name": "",
          "type": "address"
        },
        {
          "internalType": "uint256",
          "name": "",
          "type": "uint256"
        }
      ],
      "stateMutability": "view",
      "type": "function"
    },
    {
      "inputs": [
        {
          "internalType": "address",
          "name": "to",
          "type": "address"
        },
        {
          "internalType": "uint256",
          "name": "tokenId",
          "type": "uint256"
        }
      ],
      "name": "safeMint",
      "outputs": [],
      "stateMutability": "nonpayable",
      "type": "function"
    },
    {
      "inputs": [
        {
          "internalType": "address",
          "name": "from",
          "type": "address"
        },
        {
          "internalType": "address",
          "name": "to",
          "type": "address"
        },
        {
          "internalType": "uint256",
          "name": "tokenId",
          "type": "uint256"
        }
      ],
      "name": "safeTransferFrom",
      "outputs": [],
      "stateMutability": "nonpayable",
      "type": "function"
    },
    {
      "inputs": [
        {
          "internalType": "address",
          "name": "from",
          "type": "address"
        },
        {
          "internalType": "address",
          "name": "to",
          "type": "address"
        },
        {
          "internalType": "uint256",
          "name": "tokenId",
          "type": "uint256"
        },
        {
          "internalType": "bytes",
          "name": "data",
          "type": "bytes"
        }
      ],
      "name": "safeTransferFrom",
      "outputs": [],
      "stateMutability": "nonpayable",
      "type": "function"
    },
    {
      "inputs": [
        {
          "internalType": "address",
          "name": "marketplace",
          "type": "address"
        },
        {
          "internalType": "bool",
          "name": "allowed",
          "type": "bool"
        }
      ],
      "name": "setAllowedMarketplace",
      "outputs": [],
      "stateMutability": "nonpayable",
      "type": "function"
    },
    {
      "inputs": [
        {
          "internalType": "address",
          "name": "operator",
          "type": "address"
        },
        {
          "internalType": "bool",
          "name": "approved",
          "type": "bool"
        }
      ],
      "name": "setApprovalForAll",
      "outputs": [],
      "stateMutability": "nonpayable",
      "type": "function"
    },
    {
      "inputs": [
        {
          "internalType": "string",
          "name": "_newBaseURI",
          "type": "string"
        }
      ],
      "name": "setBaseURI",
      "outputs": [],
      "stateMutability": "nonpayable",
      "type": "function"
    },
    {
      "inputs": [
        {
          "internalType": "address",
          "name": "_manager",
          "type": "address"
        },
        {
          "internalType": "bool",
          "name": "_permission",
          "type": "bool"
        }
      ],
      "name": "setManager",
      "outputs": [],
      "stateMutability": "nonpayable",
      "type": "function"
    },
    {
      "inputs": [
        {
          "internalType": "address",
          "name": "_receiverAddress",
          "type": "address"
        }
      ],
      "name": "setReceiverAddress",
      "outputs": [],
      "stateMutability": "nonpayable",
      "type": "function"
    },
    {
      "inputs": [
        {
          "internalType": "bytes4",
          "name": "interfaceId",
          "type": "bytes4"
        }
      ],
      "name": "supportsInterface",
      "outputs": [
        {
          "internalType": "bool",
          "name": "",
          "type": "bool"
        }
      ],
      "stateMutability": "view",
      "type": "function"
    },
    {
      "inputs": [],
      "name": "symbol",
      "outputs": [
        {
          "internalType": "string",
          "name": "",
          "type": "string"
        }
      ],
      "stateMutability": "view",
      "type": "function"
    },
    {
      "inputs": [
        {
          "internalType": "uint256",
          "name": "index",
          "type": "uint256"
        }
      ],
      "name": "tokenByIndex",
      "outputs": [
        {
          "internalType": "uint256",
          "name": "",
          "type": "uint256"
        }
      ],
      "stateMutability": "view",
      "type": "function"
    },
    {
      "inputs": [
        {
          "internalType": "address",
          "name": "owner",
          "type": "address"
        },
        {
          "internalType": "uint256",
          "name": "index",
          "type": "uint256"
        }
      ],
      "name": "tokenOfOwnerByIndex",
      "outputs": [
        {
          "internalType": "uint256",
          "name": "",
          "type": "uint256"
        }
      ],
      "stateMutability": "view",
      "type": "function"
    },
    {
      "inputs": [
        {
          "internalType": "uint256",
          "name": "tokenId",
          "type": "uint256"
        }
      ],
      "name": "tokenURI",
      "outputs": [
        {
          "internalType": "string",
          "name": "",
          "type": "string"
        }
      ],
      "stateMutability": "view",
      "type": "function"
    },
    {
      "inputs": [],
      "name": "totalSupply",
      "outputs": [
        {
          "internalType": "uint256",
          "name": "",
          "type": "uint256"
        }
      ],
      "stateMutability": "view",
      "type": "function"
    },
    {
      "inputs": [
        {
          "internalType": "address",
          "name": "from",
          "type": "address"
        },
        {
          "internalType": "address",
          "name": "to",
          "type": "address"
        },
        {
          "internalType": "uint256",
          "name": "tokenId",
          "type": "uint256"
        }
      ],
      "name": "transferFrom",
      "outputs": [],
      "stateMutability": "nonpayable",
      "type": "function"
    },
    {
      "inputs": [
        {
          "internalType": "address",
          "name": "newOwner",
          "type": "address"
        }
      ],
      "name": "transferOwnership",
      "outputs": [],
      "stateMutability": "nonpayable",
      "type": "function"
    },
    {
      "inputs": [],
      "name": "unpause",
      "outputs": [],
      "stateMutability": "nonpayable",
      "type": "function"
    },
    {
      "inputs": [
        {
          "internalType": "uint96",
          "name": "_royalty",
          "type": "uint96"
        }
      ],
      "name": "updateRoyalty",
      "outputs": [],
      "stateMutability": "nonpayable",
      "type": "function"
    },
    {
      "inputs": [
        {
          "internalType": "address",
          "name": "newImplementation",
          "type": "address"
        }
      ],
      "name": "upgradeTo",
      "outputs": [],
      "stateMutability": "nonpayable",
      "type": "function"
    },
    {
      "inputs": [
        {
          "internalType": "address",
          "name": "newImplementation",
          "type": "address"
        },
        {
          "internalType": "bytes",
          "name": "data",
          "type": "bytes"
        }
      ],
      "name": "upgradeToAndCall",
      "outputs": [],
      "stateMutability": "payable",
      "type": "function"
    },
    {
      "inputs": [],
      "name": "withdrawMoney",
      "outputs": [],
      "stateMutability": "nonpayable",
      "type": "function"
    }
  ],
  "bytecode": "0x60a0604052306080523480156200001557600080fd5b506200002062000026565b620000e8565b600054610100900460ff1615620000935760405162461bcd60e51b815260206004820152602760248201527f496e697469616c697a61626c653a20636f6e747261637420697320696e697469604482015266616c697a696e6760c81b606482015260840160405180910390fd5b60005460ff9081161015620000e6576000805460ff191660ff9081179091556040519081527f7f26b83ff96e1f2b6a682f133852f6798a09c465da95921460cefb38474024989060200160405180910390a15b565b6080516139a76200012060003960008181610b3d01528181610b7d01528181610cbc01528181610cfc0152610e1e01526139a76000f3fe60806040526004361061027d5760003560e01c8063715018a61161014f578063b88d4fde116100c1578063dba028c21161007a578063dba028c2146107a9578063e5ad0b2b146107d6578063e985e9c5146107f6578063f2fde38b14610816578063f73c814b14610836578063fdff9b4d1461085657600080fd5b8063b88d4fde146106e3578063c87b56dd14610703578063cb65340d14610723578063cf367ee814610754578063d547cfb714610774578063d670226d1461078957600080fd5b806395d89b411161011357806395d89b41146106395780639fe577ce1461064e578063a14481941461066e578063a22cb4651461068e578063a5e90eee146106ae578063ac446002146106ce57600080fd5b8063715018a6146105a0578063730ed97b146105b55780638279c7db146105e65780638456cb59146106065780638da5cb5b1461061b57600080fd5b806336a02c37116101f357806352d1902d116101ac57806352d1902d146104f357806355f804b3146105085780635c975abb146105285780636352211e146105405780636b7489ac1461056057806370a082311461058057600080fd5b806336a02c371461044b5780633f4ba83a1461046b57806342842e0e1461048057806342966c68146104a05780634f1ef286146104c05780634f6ccce7146104d357600080fd5b806318160ddd1161024557806318160ddd1461035457806323b872dd1461037357806329ee566c146103935780632a55205a146103cc5780632f745c591461040b5780633659cfe61461042b57600080fd5b806301ffc9a71461028257806306fdde03146102b7578063081812fc146102d9578063095ea7b31461031157806316fed3e214610333575b600080fd5b34801561028e57600080fd5b506102a261029d366004613087565b610887565b60405190151581526020015b60405180910390f35b3480156102c357600080fd5b506102cc610898565b6040516102ae91906130fc565b3480156102e557600080fd5b506102f96102f436600461310f565b61092a565b6040516001600160a01b0390911681526020016102ae565b34801561031d57600080fd5b5061033161032c36600461313d565b610951565b005b34801561033f57600080fd5b50610227546102f9906001600160a01b031681565b34801561036057600080fd5b506099545b6040519081526020016102ae565b34801561037f57600080fd5b5061033161038e366004613169565b6109cd565b34801561039f57600080fd5b50610229546103b4906001600160601b031681565b6040516001600160601b0390911681526020016102ae565b3480156103d857600080fd5b506103ec6103e73660046131aa565b610a04565b604080516001600160a01b0390931683526020830191909152016102ae565b34801561041757600080fd5b5061036561042636600461313d565b610a9d565b34801561043757600080fd5b506103316104463660046131cc565b610b33565b34801561045757600080fd5b506102f961046636600461310f565b610c12565b34801561047757600080fd5b50610331610c3d565b34801561048c57600080fd5b5061033161049b366004613169565b610c69565b3480156104ac57600080fd5b506103316104bb36600461310f565b610c84565b6103316104ce36600461328c565b610cb2565b3480156104df57600080fd5b506103656104ee36600461310f565b610d7e565b3480156104ff57600080fd5b50610365610e11565b34801561051457600080fd5b5061033161052336600461331e565b610ec4565b34801561053457600080fd5b5060c95460ff166102a2565b34801561054c57600080fd5b506102f961055b36600461310f565b610ed9565b34801561056c57600080fd5b5061033161057b36600461310f565b610f39565b34801561058c57600080fd5b5061036561059b3660046131cc565b61106a565b3480156105ac57600080fd5b506103316110f0565b3480156105c157600080fd5b506102a26105d03660046131cc565b61022a6020526000908152604090205460ff1681565b3480156105f257600080fd5b506103316106013660046131cc565b611102565b34801561061257600080fd5b5061033161112d565b34801561062757600080fd5b5060fb546001600160a01b03166102f9565b34801561064557600080fd5b506102cc611157565b34801561065a57600080fd5b50610331610669366004613360565b611166565b34801561067a57600080fd5b5061033161068936600461313d565b61119a565b34801561069a57600080fd5b506103316106a9366004613360565b6111c6565b3480156106ba57600080fd5b506103316106c9366004613360565b611239565b3480156106da57600080fd5b50610331611287565b3480156106ef57600080fd5b506103316106fe36600461339e565b61132e565b34801561070f57600080fd5b506102cc61071e36600461310f565b611366565b34801561072f57600080fd5b506102a261073e3660046131cc565b61022c6020526000908152604090205460ff1681565b34801561076057600080fd5b5061033161076f3660046131cc565b6113cd565b34801561078057600080fd5b506102cc611428565b34801561079557600080fd5b506103316107a4366004613426565b6114b7565b3480156107b557600080fd5b506107c96107c43660046131cc565b6116eb565b6040516102ae91906134f6565b3480156107e257600080fd5b506103316107f136600461353a565b61178d565b34801561080257600080fd5b506102a2610811366004613555565b6117bd565b34801561082257600080fd5b506103316108313660046131cc565b6118e6565b34801561084257600080fd5b506103316108513660046131cc565b61195c565b34801561086257600080fd5b506102a26108713660046131cc565b61022b6020526000908152604090205460ff1681565b60006108928261198e565b92915050565b6060606580546108a790613583565b80601f01602080910402602001604051908101604052809291908181526020018280546108d390613583565b80156109205780601f106108f557610100808354040283529160200191610920565b820191906000526020600020905b81548152906001019060200180831161090357829003601f168201915b5050505050905090565b6000610935826119b3565b506000908152606960205260409020546001600160a01b031690565b6001600160a01b038216600090815261022a602052604090205460ff166109bf5760405162461bcd60e51b815260206004820181905260248201527f496e76616c6964206d61726b6574706c6163652c206e6f7420616c6c6f77656460448201526064015b60405180910390fd5b6109c98282611a12565b5050565b6109d8335b82611b22565b6109f45760405162461bcd60e51b81526004016109b6906135bd565b6109ff838383611b81565b505050565b60008281526067602052604081205481906001600160a01b0316610a5e5760405162461bcd60e51b81526020600482015260116024820152702737b732bc34b9ba32b73a103a37b5b2b760791b60448201526064016109b6565b61022754610229546001600160a01b0390911690610a9190610a8a9086906001600160601b0316611cf2565b6064611cfe565b915091505b9250929050565b6000610aa88361106a565b8210610b0a5760405162461bcd60e51b815260206004820152602b60248201527f455243373231456e756d657261626c653a206f776e657220696e646578206f7560448201526a74206f6620626f756e647360a81b60648201526084016109b6565b506001600160a01b03919091166000908152609760209081526040808320938352929052205490565b6001600160a01b037f0000000000000000000000000000000000000000000000000000000000000000163003610b7b5760405162461bcd60e51b81526004016109b69061360a565b7f00000000000000000000000000000000000000000000000000000000000000006001600160a01b0316610bc460008051602061392b833981519152546001600160a01b031690565b6001600160a01b031614610bea5760405162461bcd60e51b81526004016109b690613656565b610bf381611d0a565b60408051600080825260208201909252610c0f91839190611d12565b50565b61022d8181548110610c2357600080fd5b6000918252602090912001546001600160a01b0316905081565b33600090815261022b602052604090205460ff161515600114610c5f57600080fd5b610c67611e7d565b565b6109ff8383836040518060200160405280600081525061132e565b610c8d336109d2565b610ca95760405162461bcd60e51b81526004016109b6906135bd565b610c0f81611ecf565b6001600160a01b037f0000000000000000000000000000000000000000000000000000000000000000163003610cfa5760405162461bcd60e51b81526004016109b69061360a565b7f00000000000000000000000000000000000000000000000000000000000000006001600160a01b0316610d4360008051602061392b833981519152546001600160a01b031690565b6001600160a01b031614610d695760405162461bcd60e51b81526004016109b690613656565b610d7282611d0a565b6109c982826001611d12565b6000610d8960995490565b8210610dec5760405162461bcd60e51b815260206004820152602c60248201527f455243373231456e756d657261626c653a20676c6f62616c20696e646578206f60448201526b7574206f6620626f756e647360a01b60648201526084016109b6565b60998281548110610dff57610dff6136a2565b90600052602060002001549050919050565b6000306001600160a01b037f00000000000000000000000000000000000000000000000000000000000000001614610eb15760405162461bcd60e51b815260206004820152603860248201527f555550535570677261646561626c653a206d757374206e6f742062652063616c60448201527f6c6564207468726f7567682064656c656761746563616c6c000000000000000060648201526084016109b6565b5060008051602061392b83398151915290565b610ecc611f72565b6109ff6102288383612f64565b6000818152606760205260408120546001600160a01b0316806108925760405162461bcd60e51b8152602060048201526018602482015277115490cdcc8c4e881a5b9d985b1a59081d1bdad95b88125160421b60448201526064016109b6565b610f41611f72565b61022d548110610f935760405162461bcd60e51b815260206004820152601e60248201527f417272617920646f6573206e6f742068617665207468697320696e646578000060448201526064016109b6565b805b61022d54610fa5906001906136ce565b8110156110325761022d610fba8260016136e5565b81548110610fca57610fca6136a2565b60009182526020909120015461022d80546001600160a01b039092169183908110610ff757610ff76136a2565b600091825260209091200180546001600160a01b0319166001600160a01b03929092169190911790558061102a816136fd565b915050610f95565b5061022d80548061104557611045613716565b600082815260209020810160001990810180546001600160a01b031916905501905550565b60006001600160a01b0382166110d45760405162461bcd60e51b815260206004820152602960248201527f4552433732313a2061646472657373207a65726f206973206e6f7420612076616044820152683634b21037bbb732b960b91b60648201526084016109b6565b506001600160a01b031660009081526068602052604090205490565b6110f8611f72565b610c676000611fcc565b61110a611f72565b61022780546001600160a01b0319166001600160a01b0392909216919091179055565b33600090815261022b602052604090205460ff16151560011461114f57600080fd5b610c6761201e565b6060606680546108a790613583565b61116e611f72565b6001600160a01b0391909116600090815261022a60205260409020805460ff1916911515919091179055565b33600090815261022b602052604090205460ff1615156001146111bc57600080fd5b6109c9828261205b565b6001600160a01b038216600090815261022a602052604090205460ff1661122f5760405162461bcd60e51b815260206004820181905260248201527f496e76616c6964206d61726b6574706c6163652c206e6f7420616c6c6f77656460448201526064016109b6565b6109c98282612075565b33600090815261022b602052604090205460ff16151560011461125b57600080fd5b6001600160a01b0391909116600090815261022b60205260409020805460ff1916911515919091179055565b61128f611f72565b611297612080565b604051600090339047908381818185875af1925050503d80600081146112d9576040519150601f19603f3d011682016040523d82523d6000602084013e6112de565b606091505b50509050806113225760405162461bcd60e51b815260206004820152601060248201526f2a3930b739b332b9103330b4b632b21760811b60448201526064016109b6565b50610c6760016101f555565b6113383383611b22565b6113545760405162461bcd60e51b81526004016109b6906135bd565b611360848484846120e3565b50505050565b6060611371826119b3565b600061137b612116565b9050600081511161139b57604051806020016040528060008152506113c6565b806113a584612126565b6040516020016113b692919061372c565b6040516020818303038152906040525b9392505050565b6113d5611f72565b61022d80546001810182556000919091527fcbe5eb94ee31c6183f3d82fc7ed725908f7d7e2da0ee28e8d5e09973be5efd3d0180546001600160a01b0319166001600160a01b0392909216919091179055565b610228805461143690613583565b80601f016020809104026020016040519081016040528092919081815260200182805461146290613583565b80156114af5780601f10611484576101008083540402835291602001916114af565b820191906000526020600020905b81548152906001019060200180831161149257829003601f168201915b505050505081565b600054610100900460ff16158080156114d75750600054600160ff909116105b806114f15750303b1580156114f1575060005460ff166001145b6115545760405162461bcd60e51b815260206004820152602e60248201527f496e697469616c697a61626c653a20636f6e747261637420697320616c72656160448201526d191e481a5b9a5d1a585b1a5e995960921b60648201526084016109b6565b6000805460ff191660011790558015611577576000805461ff0019166101001790555b6115ea8a8a8080601f01602080910402602001604051908101604052809392919081815260200183838082843760009201919091525050604080516020601f8e018190048102820181019092528c815292508c91508b90819084018382808284376000920191909152506121b992505050565b6115f26121ea565b6115fa612211565b611602612240565b61160a6121ea565b6116126121ea565b61161a61226f565b6116248686610ec4565b61022780546001600160a01b0319166001600160a01b0386811691909117825561022980546bffffffffffffffffffffffff19166001600160601b03878116919091178255858316600090815261022b60205260409020805460ff19166001179055925490546116999391909216911661229e565b80156116df576000805461ff0019169055604051600181527f7f26b83ff96e1f2b6a682f133852f6798a09c465da95921460cefb38474024989060200160405180910390a15b50505050505050505050565b606060006116f88361106a565b905060008167ffffffffffffffff811115611715576117156131e9565b60405190808252806020026020018201604052801561173e578160200160208202803683370190505b50905060005b82811015611785576117568582610a9d565b828281518110611768576117686136a2565b60209081029190910101528061177d816136fd565b915050611744565b509392505050565b611795611f72565b61022980546bffffffffffffffffffffffff19166001600160601b0392909216919091179055565b6000805b61022d548110156118b757600061022d82815481106117e2576117e26136a2565b60009182526020808320909101546001600160a01b031680835261022c909152604090912054909150819060ff168015611891575060405163c455279160e01b81526001600160a01b038781166004830152808716919083169063c455279190602401602060405180830381865afa158015611862573d6000803e3d6000fd5b505050506040513d601f19601f82011682018060405250810190611886919061375b565b6001600160a01b0316145b156118a25760019350505050610892565b505080806118af906136fd565b9150506117c1565b506001600160a01b038084166000908152606a602090815260408083209386168352929052205460ff166113c6565b6118ee611f72565b6001600160a01b0381166119535760405162461bcd60e51b815260206004820152602660248201527f4f776e61626c653a206e6577206f776e657220697320746865207a65726f206160448201526564647265737360d01b60648201526084016109b6565b610c0f81611fcc565b611964611f72565b6001600160a01b0316600090815261022c60205260409020805460ff19811660ff90911615179055565b60006001600160e01b0319821663152a902d60e11b148061089257506108928261239c565b6000818152606760205260409020546001600160a01b0316610c0f5760405162461bcd60e51b8152602060048201526018602482015277115490cdcc8c4e881a5b9d985b1a59081d1bdad95b88125160421b60448201526064016109b6565b6000611a1d82610ed9565b9050806001600160a01b0316836001600160a01b031603611a8a5760405162461bcd60e51b815260206004820152602160248201527f4552433732313a20617070726f76616c20746f2063757272656e74206f776e656044820152603960f91b60648201526084016109b6565b336001600160a01b0382161480611aa65750611aa681336117bd565b611b185760405162461bcd60e51b815260206004820152603d60248201527f4552433732313a20617070726f76652063616c6c6572206973206e6f7420746f60448201527f6b656e206f776e6572206f7220617070726f76656420666f7220616c6c00000060648201526084016109b6565b6109ff83836123c1565b600080611b2e83610ed9565b9050806001600160a01b0316846001600160a01b03161480611b555750611b5581856117bd565b80611b795750836001600160a01b0316611b6e8461092a565b6001600160a01b0316145b949350505050565b826001600160a01b0316611b9482610ed9565b6001600160a01b031614611bba5760405162461bcd60e51b81526004016109b690613778565b6001600160a01b038216611c1c5760405162461bcd60e51b8152602060048201526024808201527f4552433732313a207472616e7366657220746f20746865207a65726f206164646044820152637265737360e01b60648201526084016109b6565b611c29838383600161242f565b826001600160a01b0316611c3c82610ed9565b6001600160a01b031614611c625760405162461bcd60e51b81526004016109b690613778565b600081815260696020908152604080832080546001600160a01b03199081169091556001600160a01b0387811680865260688552838620805460001901905590871680865283862080546001019055868652606790945282852080549092168417909155905184937fddf252ad1be2c89b69c2b068fc378daa952ba7f163c4a11628f55a4df523b3ef91a4505050565b60006113c682846137bd565b60006113c682846137dc565b610c0f611f72565b7f4910fdfa16fed3260ed0e7147f7cc6da11a60208b5b9406d12a635614ffd91435460ff1615611d45576109ff83612443565b826001600160a01b03166352d1902d6040518163ffffffff1660e01b8152600401602060405180830381865afa925050508015611d9f575060408051601f3d908101601f19168201909252611d9c918101906137fe565b60015b611e025760405162461bcd60e51b815260206004820152602e60248201527f45524331393637557067726164653a206e657720696d706c656d656e7461746960448201526d6f6e206973206e6f74205555505360901b60648201526084016109b6565b60008051602061392b8339815191528114611e715760405162461bcd60e51b815260206004820152602960248201527f45524331393637557067726164653a20756e737570706f727465642070726f786044820152681a58589b195555525160ba1b60648201526084016109b6565b506109ff8383836124df565b611e85612504565b60c9805460ff191690557f5db9ee0a495bf2e6ff9c91a7834c1ba4fdd244a5e8aa4e537bd38aeae4b073aa335b6040516001600160a01b03909116815260200160405180910390a1565b6000611eda82610ed9565b9050611eea81600084600161242f565b611ef382610ed9565b600083815260696020908152604080832080546001600160a01b03199081169091556001600160a01b0385168085526068845282852080546000190190558785526067909352818420805490911690555192935084927fddf252ad1be2c89b69c2b068fc378daa952ba7f163c4a11628f55a4df523b3ef908390a45050565b60fb546001600160a01b03163314610c675760405162461bcd60e51b815260206004820181905260248201527f4f776e61626c653a2063616c6c6572206973206e6f7420746865206f776e657260448201526064016109b6565b60fb80546001600160a01b038381166001600160a01b0319831681179093556040519116919082907f8be0079c531659141344cd1fd0a4f28419497f9722a3daafe3b4186f6b6457e090600090a35050565b61202661254d565b60c9805460ff191660011790557f62e78cea01bee320cd4e420270b5ea74000d11b0c9f74754ebdbfc544b05a258611eb23390565b6109c9828260405180602001604052806000815250612593565b6109c93383836125c6565b60026101f554036120d35760405162461bcd60e51b815260206004820152601f60248201527f5265656e7472616e637947756172643a207265656e7472616e742063616c6c0060448201526064016109b6565b60026101f555565b60016101f555565b6120ee848484611b81565b6120fa84848484612694565b6113605760405162461bcd60e51b81526004016109b690613817565b606061022880546108a790613583565b6060600061213383612795565b600101905060008167ffffffffffffffff811115612153576121536131e9565b6040519080825280601f01601f19166020018201604052801561217d576020820181803683370190505b5090508181016020015b600019016f181899199a1a9b1b9c1cb0b131b232b360811b600a86061a8153600a850494508461218757509392505050565b600054610100900460ff166121e05760405162461bcd60e51b81526004016109b690613869565b6109c9828261286d565b600054610100900460ff16610c675760405162461bcd60e51b81526004016109b690613869565b600054610100900460ff166122385760405162461bcd60e51b81526004016109b690613869565b610c676128bb565b600054610100900460ff166122675760405162461bcd60e51b81526004016109b690613869565b610c676128ee565b600054610100900460ff166122965760405162461bcd60e51b81526004016109b690613869565b610c6761291e565b6127106001600160601b038216111561230c5760405162461bcd60e51b815260206004820152602a60248201527f455243323938313a20726f79616c7479206665652077696c6c206578636565646044820152692073616c65507269636560b01b60648201526084016109b6565b6001600160a01b0382166123625760405162461bcd60e51b815260206004820152601960248201527f455243323938313a20696e76616c69642072656365697665720000000000000060448201526064016109b6565b604080518082019091526001600160a01b039092168083526001600160601b039091166020909201829052600160a01b9091021761012d55565b60006001600160e01b0319821663780e9d6360e01b1480610892575061089282612945565b600081815260696020526040902080546001600160a01b0319166001600160a01b03841690811790915581906123f682610ed9565b6001600160a01b03167f8c5be1e5ebec7d5bd14f71427d1e84f3dd0314c0f7b2291e5b200ac8c7c3b92560405160405180910390a45050565b61243761254d565b61136084848484612995565b6001600160a01b0381163b6124b05760405162461bcd60e51b815260206004820152602d60248201527f455243313936373a206e657720696d706c656d656e746174696f6e206973206e60448201526c1bdd08184818dbdb9d1c9858dd609a1b60648201526084016109b6565b60008051602061392b83398151915280546001600160a01b0319166001600160a01b0392909216919091179055565b6124e883612ac9565b6000825111806124f55750805b156109ff576113608383612b09565b60c95460ff16610c675760405162461bcd60e51b815260206004820152601460248201527314185d5cd8589b194e881b9bdd081c185d5cd95960621b60448201526064016109b6565b60c95460ff1615610c675760405162461bcd60e51b815260206004820152601060248201526f14185d5cd8589b194e881c185d5cd95960821b60448201526064016109b6565b61259d8383612bfd565b6125aa6000848484612694565b6109ff5760405162461bcd60e51b81526004016109b690613817565b816001600160a01b0316836001600160a01b0316036126275760405162461bcd60e51b815260206004820152601960248201527f4552433732313a20617070726f766520746f2063616c6c65720000000000000060448201526064016109b6565b6001600160a01b038381166000818152606a6020908152604080832094871680845294825291829020805460ff191686151590811790915591519182527f17307eab39ab6107e8899845ad3d59bd9653f200f220920489ca2b5937696c31910160405180910390a3505050565b60006001600160a01b0384163b1561278a57604051630a85bd0160e11b81526001600160a01b0385169063150b7a02906126d89033908990889088906004016138b4565b6020604051808303816000875af1925050508015612713575060408051601f3d908101601f19168201909252612710918101906138f1565b60015b612770573d808015612741576040519150601f19603f3d011682016040523d82523d6000602084013e612746565b606091505b5080516000036127685760405162461bcd60e51b81526004016109b690613817565b805181602001fd5b6001600160e01b031916630a85bd0160e11b149050611b79565b506001949350505050565b60008072184f03e93ff9f4daa797ed6e38ed64bf6a1f0160401b83106127d45772184f03e93ff9f4daa797ed6e38ed64bf6a1f0160401b830492506040015b6d04ee2d6d415b85acef81000000008310612800576d04ee2d6d415b85acef8100000000830492506020015b662386f26fc10000831061281e57662386f26fc10000830492506010015b6305f5e1008310612836576305f5e100830492506008015b612710831061284a57612710830492506004015b6064831061285c576064830492506002015b600a83106108925760010192915050565b600054610100900460ff166128945760405162461bcd60e51b81526004016109b690613869565b81516128a7906065906020850190612fe8565b5080516109ff906066906020840190612fe8565b600054610100900460ff166128e25760405162461bcd60e51b81526004016109b690613869565b60c9805460ff19169055565b600054610100900460ff166129155760405162461bcd60e51b81526004016109b690613869565b610c6733611fcc565b600054610100900460ff166120db5760405162461bcd60e51b81526004016109b690613869565b60006001600160e01b031982166380ac58cd60e01b148061297657506001600160e01b03198216635b5e139f60e01b145b8061089257506301ffc9a760e01b6001600160e01b0319831614610892565b6001811115612a045760405162461bcd60e51b815260206004820152603560248201527f455243373231456e756d657261626c653a20636f6e7365637574697665207472604482015274185b9cd9995c9cc81b9bdd081cdd5c1c1bdc9d1959605a1b60648201526084016109b6565b816001600160a01b038516612a6057612a5b81609980546000838152609a60205260408120829055600182018355919091527f72a152ddfb8e864297c917af52ea6c1c68aead0fee1a62673fcc7e0c94979d000155565b612a83565b836001600160a01b0316856001600160a01b031614612a8357612a838582612d96565b6001600160a01b038416612a9f57612a9a81612e33565b612ac2565b846001600160a01b0316846001600160a01b031614612ac257612ac28482612ee2565b5050505050565b612ad281612443565b6040516001600160a01b038216907fbc7cd75a20ee27fd9adebab32041f755214dbc6bffa90cc0225b39da2e5c2d3b90600090a250565b60606001600160a01b0383163b612b715760405162461bcd60e51b815260206004820152602660248201527f416464726573733a2064656c65676174652063616c6c20746f206e6f6e2d636f6044820152651b9d1c9858dd60d21b60648201526084016109b6565b600080846001600160a01b031684604051612b8c919061390e565b600060405180830381855af49150503d8060008114612bc7576040519150601f19603f3d011682016040523d82523d6000602084013e612bcc565b606091505b5091509150612bf4828260405180606001604052806027815260200161394b60279139612f26565b95945050505050565b6001600160a01b038216612c535760405162461bcd60e51b815260206004820181905260248201527f4552433732313a206d696e7420746f20746865207a65726f206164647265737360448201526064016109b6565b6000818152606760205260409020546001600160a01b031615612cb85760405162461bcd60e51b815260206004820152601c60248201527f4552433732313a20746f6b656e20616c7265616479206d696e7465640000000060448201526064016109b6565b612cc660008383600161242f565b6000818152606760205260409020546001600160a01b031615612d2b5760405162461bcd60e51b815260206004820152601c60248201527f4552433732313a20746f6b656e20616c7265616479206d696e7465640000000060448201526064016109b6565b6001600160a01b038216600081815260686020908152604080832080546001019055848352606790915280822080546001600160a01b0319168417905551839291907fddf252ad1be2c89b69c2b068fc378daa952ba7f163c4a11628f55a4df523b3ef908290a45050565b60006001612da38461106a565b612dad91906136ce565b600083815260986020526040902054909150808214612e00576001600160a01b03841660009081526097602090815260408083208584528252808320548484528184208190558352609890915290208190555b5060009182526098602090815260408084208490556001600160a01b039094168352609781528383209183525290812055565b609954600090612e45906001906136ce565b6000838152609a602052604081205460998054939450909284908110612e6d57612e6d6136a2565b906000526020600020015490508060998381548110612e8e57612e8e6136a2565b6000918252602080832090910192909255828152609a90915260408082208490558582528120556099805480612ec657612ec6613716565b6001900381819060005260206000200160009055905550505050565b6000612eed8361106a565b6001600160a01b039093166000908152609760209081526040808320868452825280832085905593825260989052919091209190915550565b60608315612f355750816113c6565b6113c68383815115612f4a5781518083602001fd5b8060405162461bcd60e51b81526004016109b691906130fc565b828054612f7090613583565b90600052602060002090601f016020900481019282612f925760008555612fd8565b82601f10612fab5782800160ff19823516178555612fd8565b82800160010185558215612fd8579182015b82811115612fd8578235825591602001919060010190612fbd565b50612fe492915061305c565b5090565b828054612ff490613583565b90600052602060002090601f0160209004810192826130165760008555612fd8565b82601f1061302f57805160ff1916838001178555612fd8565b82800160010185558215612fd8579182015b82811115612fd8578251825591602001919060010190613041565b5b80821115612fe4576000815560010161305d565b6001600160e01b031981168114610c0f57600080fd5b60006020828403121561309957600080fd5b81356113c681613071565b60005b838110156130bf5781810151838201526020016130a7565b838111156113605750506000910152565b600081518084526130e88160208601602086016130a4565b601f01601f19169290920160200192915050565b6020815260006113c660208301846130d0565b60006020828403121561312157600080fd5b5035919050565b6001600160a01b0381168114610c0f57600080fd5b6000806040838503121561315057600080fd5b823561315b81613128565b946020939093013593505050565b60008060006060848603121561317e57600080fd5b833561318981613128565b9250602084013561319981613128565b929592945050506040919091013590565b600080604083850312156131bd57600080fd5b50508035926020909101359150565b6000602082840312156131de57600080fd5b81356113c681613128565b634e487b7160e01b600052604160045260246000fd5b600082601f83011261321057600080fd5b813567ffffffffffffffff8082111561322b5761322b6131e9565b604051601f8301601f19908116603f01168101908282118183101715613253576132536131e9565b8160405283815286602085880101111561326c57600080fd5b836020870160208301376000602085830101528094505050505092915050565b6000806040838503121561329f57600080fd5b82356132aa81613128565b9150602083013567ffffffffffffffff8111156132c657600080fd5b6132d2858286016131ff565b9150509250929050565b60008083601f8401126132ee57600080fd5b50813567ffffffffffffffff81111561330657600080fd5b602083019150836020828501011115610a9657600080fd5b6000806020838503121561333157600080fd5b823567ffffffffffffffff81111561334857600080fd5b613354858286016132dc565b90969095509350505050565b6000806040838503121561337357600080fd5b823561337e81613128565b91506020830135801515811461339357600080fd5b809150509250929050565b600080600080608085870312156133b457600080fd5b84356133bf81613128565b935060208501356133cf81613128565b925060408501359150606085013567ffffffffffffffff8111156133f257600080fd5b6133fe878288016131ff565b91505092959194509250565b80356001600160601b038116811461342157600080fd5b919050565b600080600080600080600080600060c08a8c03121561344457600080fd5b893567ffffffffffffffff8082111561345c57600080fd5b6134688d838e016132dc565b909b50995060208c013591508082111561348157600080fd5b61348d8d838e016132dc565b909950975060408c01359150808211156134a657600080fd5b506134b38c828d016132dc565b90965094505060608a01356134c781613128565b92506134d560808b0161340a565b915060a08a01356134e581613128565b809150509295985092959850929598565b6020808252825182820181905260009190848201906040850190845b8181101561352e57835183529284019291840191600101613512565b50909695505050505050565b60006020828403121561354c57600080fd5b6113c68261340a565b6000806040838503121561356857600080fd5b823561357381613128565b9150602083013561339381613128565b600181811c9082168061359757607f821691505b6020821081036135b757634e487b7160e01b600052602260045260246000fd5b50919050565b6020808252602d908201527f4552433732313a2063616c6c6572206973206e6f7420746f6b656e206f776e6560408201526c1c881bdc88185c1c1c9bdd9959609a1b606082015260800190565b6020808252602c908201527f46756e6374696f6e206d7573742062652063616c6c6564207468726f7567682060408201526b19195b1959d85d1958d85b1b60a21b606082015260800190565b6020808252602c908201527f46756e6374696f6e206d7573742062652063616c6c6564207468726f7567682060408201526b6163746976652070726f787960a01b606082015260800190565b634e487b7160e01b600052603260045260246000fd5b634e487b7160e01b600052601160045260246000fd5b6000828210156136e0576136e06136b8565b500390565b600082198211156136f8576136f86136b8565b500190565b60006001820161370f5761370f6136b8565b5060010190565b634e487b7160e01b600052603160045260246000fd5b6000835161373e8184602088016130a4565b8351908301906137528183602088016130a4565b01949350505050565b60006020828403121561376d57600080fd5b81516113c681613128565b60208082526025908201527f4552433732313a207472616e736665722066726f6d20696e636f72726563742060408201526437bbb732b960d91b606082015260800190565b60008160001904831182151516156137d7576137d76136b8565b500290565b6000826137f957634e487b7160e01b600052601260045260246000fd5b500490565b60006020828403121561381057600080fd5b5051919050565b60208082526032908201527f4552433732313a207472616e7366657220746f206e6f6e20455243373231526560408201527131b2b4bb32b91034b6b83632b6b2b73a32b960711b606082015260800190565b6020808252602b908201527f496e697469616c697a61626c653a20636f6e7472616374206973206e6f74206960408201526a6e697469616c697a696e6760a81b606082015260800190565b6001600160a01b03858116825284166020820152604081018390526080606082018190526000906138e7908301846130d0565b9695505050505050565b60006020828403121561390357600080fd5b81516113c681613071565b600082516139208184602087016130a4565b919091019291505056fe360894a13ba1a3210667c828492db98dca3e2076cc3735a920a3ca505d382bbc416464726573733a206c6f772d6c6576656c2064656c65676174652063616c6c206661696c6564a2646970667358221220665be1ff713907a98110287fa647f03d582816ff23867ad697912f13a024900764736f6c634300080d0033",
  "linkReferences": {},
  "deployedLinkReferences": {}
}